:100000000C9462000C948A000C948A000C948A0070
:100010000C948A000C948A000C948A000C948A0038
:100020000C948A000C948A000C948A000C948A0028
:100030000C948A000C948A000C948A000C948A0018
:100040000C94E5020C948A000C94B3020C948D027B
:100050000C948A000C948A000C948A000C948A00F8
:100060000C948A000C948A000000000024002700F1
:100070002A0000000000250028002B0000000000DE
:1000800023002600290004040404040404040202DA
:100090000202020203030303030301020408102007
:1000A0004080010204081020010204081020000012
:1000B0000008000201000003040700000000000027
:1000C00000002A0411241FBECFEFD8E0DEBFCDBF51
:1000D00011E0A0E0B1E0EEECF8E002C005900D9276
:1000E000A033B107D9F721E0A0E3B1E001C01D9230
:1000F000AB3DB207E1F710E0C2E6D0E004C02197C3
:10010000FE010E945F04C136D107C9F70E942F0388
:100110000C9457040C940000CF92DF92EF92FF9260
:100120000F931F93CF93DF936C017A018B01C0E093
:10013000D0E0CE15DF0589F0D8016D918D01D60193
:10014000ED91FC910190F081E02DC6010995892B7C
:1001500011F47E0102C02196ECCFC701DF91CF914F
:100160001F910F91FF90EF90DF90CF900895089529
:1001700080E090E00895FC01538D448D252F30E000
:10018000842F90E0821B930B541710F0CF960895A4
:1001900001970895FC01918D828D981761F0828DF1
:1001A000DF01A80FB11D5D968C91928D9F5F9F73AB
:1001B000928F90E008958FEF9FEF0895FC01918D4D
:1001C000828D981731F0828DE80FF11D858D90E0BA
:1001D00008958FEF9FEF0895FC01918D228D892F57
:1001E00090E0805C9F4F821B91098F73992708953F
:1001F0008EE391E00E94EC0021E0892B09F420E0DD
:10020000822F0895FC01848DDF01A80FB11DA35A30
:10021000BF4F2C91848D90E001968F739927848F26
:10022000A689B7892C93A089B1898C9180648C931D
:10023000938D848D981306C00288F389E02D808108
:100240008F7D80830895EF92FF920F931F93CF933A
:10025000DF93EC0181E0888F9B8D8C8D981305C016
:10026000E889F989808185FD24C0F62E0B8D10E088
:100270000F5F1F4F0F731127E02E8C8DE8120CC0FB
:100280000FB607FCFACFE889F989808185FFF5CFA1
:10029000CE010E940201F1CF8B8DFE01E80FF11D0E
:1002A000E35AFF4FF0820B8FEA89FB8980818062DD
:1002B00007C0EE89FF896083E889F98980818064BD
:1002C000808381E090E0DF91CF911F910F91FF90AB
:1002D000EF900895CF93DF93EC01888D8823C9F0C8
:1002E000EA89FB89808185FD05C0A889B9898C913F
:1002F00086FD0FC00FB607FCF5CF808185FFF2CFDA
:10030000A889B9898C9185FFEDCFCE010E940201A9
:10031000E7CFDF91CF91089580E090E0892B29F01D
:100320000E94F80081110C9400000895833081F040
:1003300028F4813099F08230A1F008958730A9F037
:100340008830B9F08430D1F4809180008F7D03C073
:10035000809180008F7780938000089584B58F7797
:1003600002C084B58F7D84BD08958091B0008F77E1
:1003700003C08091B0008F7D8093B0000895CF932B
:10038000DF93282F30E0F901E255FF4F8491F90106
:10039000E656FF4FD491F901EA57FF4FC491CC23A1
:1003A00091F081110E949601EC2FF0E0EE0FFF1FFB
:1003B000E458FF4FA591B491EC91ED2381E090E0DA
:1003C00021F480E002C080E090E0DF91CF910895B9
:1003D0001F93CF93DF93282F30E0F901E255FF4FB1
:1003E0008491F901E656FF4FD491F901EA57FF4F86
:1003F000C491CC23C9F0162F81110E949601EC2FD5
:10040000F0E0EE0FFF1FEE58FF4FA591B4918FB7AC
:10041000F894111105C09C91ED2FE095E92302C0DD
:10042000EC91ED2BEC938FBFDF91CF911F9108954D
:10043000CF93DF9390E0FC01E656FF4F2491FC013F
:10044000EA57FF4F8491882361F190E0880F991F4C
:10045000FC01E859FF4FC591D491FC01EE58FF4FC4
:10046000A591B491611109C09FB7F8948881209536
:1004700082238883EC912E230BC0623061F49FB7F6
:10048000F8943881822F809583238883EC912E2BDA
:100490002C939FBF06C08FB7F894E8812E2B28833A
:1004A0008FBFDF91CF9108953FB7F89480913501C8
:1004B00090913601A0913701B091380126B5A89BE3
:1004C00005C02F3F19F00196A11DB11D3FBFBA2FE6
:1004D000A92F982F8827820F911DA11DB11DBC0146
:1004E000CD0142E0660F771F881F991F4A95D1F70B
:1004F0000895009769F0FC0101900020E9F7319719
:10050000AF01481B590BBC018EE391E00C948C00A9
:1005100080E090E008950E945A041F920F920FB657
:100520000F9211242F933F934F935F936F937F9379
:100530008F939F93AF93BF93EF93FF938EE391E0DD
:100540000E940201FF91EF91BF91AF919F918F9116
:100550007F916F915F914F913F912F910F900FBEBF
:100560000F901F9018951F920F920FB60F921124A3
:100570002F938F939F93EF93FF93E0914E01F09110
:100580004F018081E0915401F091550182FD12C02C
:100590009081809157018F5F8F732091580182174E
:1005A00051F0E0915701F0E0E25CFE4F958F8093AF
:1005B000570101C08081FF91EF919F918F912F9101
:1005C0000F900FBE0F901F9018951F920F920FB6AD
:1005D0000F9211242F933F938F939F93AF93BF93C9
:1005E0008091310190913201A0913301B091340199
:1005F0003091300123E0230F2D3720F40196A11D07
:10060000B11D05C026E8230F0296A11DB11D209340
:1006100030018093310190933201A0933301B09364
:1006200034018091350190913601A0913701B0914C
:1006300038010196A11DB11D8093350190933601BB
:10064000A0933701B0933801BF91AF919F918F91E3
:100650003F912F910F900FBE0F901F901895789497
:1006600084B5826084BD84B5816084BD85B58260B7
:1006700085BD85B5816085BD80916E008160809368
:100680006E001092810080918100826080938100D1
:1006900080918100816080938100809180008160E1
:1006A000809380008091B10084608093B10080913C
:1006B000B00081608093B00080917A008460809364
:1006C0007A0080917A00826080937A0080917A002B
:1006D000816080937A0080917A00806880937A00AC
:1006E0001092C100E0914E01F0914F0182E08083B1
:1006F000E0914A01F0914B011082E0914C01F091A0
:100700004D018FEC808310925601E0915201F091DF
:10071000530186E08083E0915001F0915101808186
:1007200080618083E0915001F09151018081886067
:100730008083E0915001F091510180818068808335
:10074000E0915001F091510180818F7D808360E0C4
:1007500086E00E94180261E088E00E94180261E0D1
:1007600089E00E94180260E085E00E94180261E0C2
:1007700084E00E94180261E089E00E94E801C1E083
:1007800086E00E94BF017C0190933D0180933C0173
:1007900085E00E94BF0190933B0180933A01813034
:1007A0009105A1F480913901882351F1109239010A
:1007B00060E084E00E94E80182E191E00E94790219
:1007C0008FE191E00E94790260E017C0892BC1F4AB
:1007D000EF28B1F480913901811112C0C093390121
:1007E00061E084E00E94E80182E291E00E947902E7
:1007F0008FE191E00E94790261E088E00E94E801C7
:100800000E9454024B015C0184EFC82EDD24D39476
:10081000E12CF12C0E945402DC01CB0188199909CA
:10082000AA09BB09883E9340A105B10558F021E013
:10083000C21AD108E108F10888EE880E83E0981EFC
:10084000A11CB11CC114D104E104F10419F70E94E8
:100850008C0196CFEEE3F1E01382128288EE93E0F2
:10086000A0E0B0E084839583A683B78384E091E021
:100870009183808385EC90E09587848784EC90E079
:100880009787868780EC90E0918B808B81EC90E05D
:10089000938B828B82EC90E0958B848B86EC90E03E
:1008A000978B868B118E128E138E148E0895F8946A
:1008B0000C94650481E090E0F8940C946504EE0FCC
:0E08C000FF1F0590F491E02D0994F894FFCFEE
:1008CE000000000023018C00BB006A01EC00CA008E
:1008DE00DE0056616C766520436C6F736564000DA7
:1008EE000A0056616C7665204F70656E6564000077
:00000001FF
